:030000000200B645
:0C00B600787FE4F6D8FD75810E0200038F
:1000A2003F065B4F666D7D077F6F777C395E7971A6
:0400B2007679383FE4
:10000300D2A775807FC2A7D2B600C2B600D2B6AB64
:100013000AAD09AF0812004A7590FFD2B700C2B704
:100023000085900BD2B7E50B75F06484F508E50BFA
:1000330075F06484E5F075F00A84F509E50B75F055
:070043000A8485F00A80C069
:10004A008D0D8B0ED2A775807EC2A77580FFD2A6B2
:10005A00EF12008A7580FFD2A775807DC2A77580CE
:10006A00FFD2A6E50D12008A7580FFD2A775807BA4
:10007A00C2A77580FFD2A6E50E12008A7580FF22FC
:0A008A009000A293F580C2A67F0546
:0D009400EFD3940040077E6EDEFE1F80F368
:0100A100223C
:00000001FF
