:0300000002017684
:0C017600787FE4F6D8FD75810A02018252
:0D016800EFD3940040077E6EDEFE1F80F393
:010175002267
:10000300E4F50975B0FE85B00A530AF0E50A64F019
:1000130060467F0512016885B00A530AF0E50A6459
:10002300F06035E50A2482601B24C0601224E0607E
:100033000924F07012E4F508800D75080180087535
:1000430008028003750803E50A64F0600B85B00AB3
:10005300530AF075090180EF75B0FD85B00A530AA4
:10006300F0E50A64F060467F0512016885B00A5323
:100073000AF0E50A64F06035E50A2483601B24C0B6
:10008300601224E0600924F07012E4F508800D7515
:10009300080180087508028003750803E50A64F007
:1000A300600B85B00A530AF075090180EF75B0FB48
:1000B30085B00A530AF0E50A64F060467F05120131
:1000C3006885B00A530AF0E50A64F06035E50A244E
:1000D30085601B24C0601224E0600924F07012E4E0
:1000E300F508800D750801800875080280037508FE
:1000F30003E50A64F0600B85B00A530AF075090141
:1001030080EF75B0F785B00A530AF0E50A64F06032
:10011300467F0512016885B00A530AF0E50A64F0C8
:100123006035E50A2489601B24C0601224E060095D
:1001330024F07012E4F508800D7508018008750835
:10014300028003750803E50A64F0600B85B00A5367
:100153000AF075090180EFE50964016003020006F6
:04016300F509AF08E3
:010167002275
:0A018200120003EF24FF929080F6B4
:00000001FF
