:03000000020006F5
:0C000600787FE4F6D8FD75810E02004DF5
:10013D003F065B4F666D7D077F6F777C395E79710A
:03015600010C0099
:1000D20012012975090CE50975F06484F508E50932
:1000E20075F06484E5F075F00A84F50AE50975F0A7
:1000F2000A8485F00BE50CB4140AE4F50CD5090466
:0F010200C2A3C28CAB0BAD0AAF0812009280C42F
:10012900C2A7C2A6758901758A3C758CB0D2AFD2B7
:04013900A9D28C2299
:100092008D0D8B0ED2A77580FEC2A77580FFD2A6EA
:1000A200EF1201117580FFD2A77580FCC2A775807F
:1000B200FFD2A6E50D1201117580FFD2A77580FA55
:1000C200C2A77580FFD2A6E50E1201117580FF222C
:0A01110090013D93F580C2A67F0522
:0D011B00EFD3940040077E6EDEFE1F80F3E0
:0101280022B4
:0300030002014DAA
:09014D00758A3C758CB0050C327A
:100012000200D2E493A3F8E493A34003F68001F232
:1000220008DFF48029E493A3F85407240CC8C333EF
:10003200C4540F4420C8834004F456800146F6DFBE
:10004200E4800B0102040810204080900156E47EF7
:10005200019360BCA3FF543F30E509541FFEE493B3
:10006200A360010ECF54C025E060A840B8E493A37A
:10007200FAE493A3F8E493A3C8C582C8CAC583CAA5
:10008200F0A3C8C582C8CAC583CADFE9DEE780BE5D
:0101590000A5
:00000001FF
