:0300000002012ECC
:0C012E00787FE4F6D8FD7581180200030C
:10011A003F065B4F666D7D077F6F777C395E79712D
:04012A007679383F6B
:10000300E4F508758920758DFD758BFDD28EC29F31
:10001300D29ED29C30980BC2988599908599088579
:100023000899E5086065E4FFE508601E75F00A8439
:10003300740C2FF8A6F0E50875F00A84F50870072C
:100043000F740C2FF8762A0F80DEE4F513F512F502
:100053000BF50AF509FF740C2FF8E6642A602CEF00
:1000630014601314601524FE6016146018240570C0
:1000730017850C138012850D12800D850E0B8008D9
:10008300850F0A80038510090F80CB85121785130E
:0D00930018AB0BAD0AAF091200A002001758
:0701050093F580C2A67F05FF
:0D010C00EFD3940040077E6EDEFE1F80F3EF
:0101190022C3
:1000A000D2A77580FEC2A77580FFD2A6EF90011A75
:1000B0001201057580FFD2A77580FDC2A77580FF6C
:1000C000D2A6ED1201057580FFD2A77580FBC2A7ED
:1000D0007580FFD2A6EB1201057580FFD2A775804F
:1000E000F7C2A77580FFD2A6E5171201057580FF3C
:1000F000D2A77580EFC2A77580FFD2A6E5181201BE
:05010000057580FF22DF
:00000001FF
