:0300000002000EED
:0C000E00787FE4F6D8FD75810E020055E5
:100142003F065B4F666D7D077F6F777C395E797105
:0600030001090C010C00D4
:1000DA0012012EE50975F06484F508E50975F064E6
:1000EA0084E5F075F00A84F50AE50975F00A848555
:1000FA00F00BE50CB4140AE4F50CD50904C2A3C24A
:0C010A008CAB0BAD0AAF0812009A80C746
:10012E00C2A7C2A6758901758C3C758AB0D2AFD2B2
:04013E00A9D28C2294
:10009A008D0D8B0ED2A77580FEC2A77580FFD2A6E2
:1000AA00EF1201167580FFD2A77580FDC2A7758071
:1000BA00FFD2A6E50D1201167580FFD2A77580FB47
:1000CA00C2A77580FFD2A6E50E1201167580FF221F
:0A01160090014293F580C2A67F0518
:0D012000EFD3940040077E6EDEFE1F80F3DB
:01012D0022AF
:03000B000201529D
:09015200758C3C758AB0050C3275
:10001A000200DAE493A3F8E493A34003F68001F222
:10002A0008DFF48029E493A3F85407240CC8C333E7
:10003A00C4540F4420C8834004F456800146F6DFB6
:10004A00E4800B0102040810204080900003E47E43
:10005A00019360BCA3FF543F30E509541FFEE493AB
:10006A00A360010ECF54C025E060A840B8E493A372
:10007A00FAE493A3F8E493A3C8C582C8CAC583CA9D
:10008A00F0A3C8C582C8CAC583CADFE9DEE780BE55
:0100090000F6
:00000001FF
