:030000000200906B
:0C009000787FE4F6D8FD75810B020003B8
:100080003F065B4F666D7D077F6F777C395E7971C8
:100003007508007509FE8509907FE87E031200627A
:10001300D2A77580C0C2A7E4F50AF50BD2A6E50BFB
:1000230090008093F580C2A6AF097801EF088001A4
:1000330023D8FD750800F509F590C2A37FF47E016E
:10004300120062D2A37FF47E01120062050BE50B5E
:0F0053007002050AC39410E50A940040BF80B8FC
:10006200D3EF9400EE940040147D6E7C00ED1D7081
:0D007200011CED4C70F7EF1F70E61E80E3DF
:01007F00225E
:00000001FF
