:0300000002019169
:0C019100787FE4F6D8FD7581080201A912
:0601A900120149020003EF
:10014900C2A6C2A77F3812019D7F0E12019D7F06AC
:0D01590012019D7F0112019D7F8002019D1A
:0D0166007F057E00120173D2B47F057E007C
:0D017300EFD3940040077E6EDEFE1F80F388
:01018000225C
:10018100AD07C2B4D2B51201668D80C2B4C2B52228
:0C019D00C2B4C2B58F80120166C2B42249
:1000030075B0FEAFB05307F0EF64F0603B12016FC1
:10001300AFB05307F0EF64F0602EEF249060182424
:10002300C0601024E0600824F0700E7C30800A7CED
:100033003180067C3280027C33EF64F0600AAFB01B
:100043005307F075080180F175B0FDAFB05307F0A9
:10005300EF64F0603B12016FAFB05307F0EF64F051
:10006300602EEF2490601824C0601024E060082400
:10007300F0700EE4FC800A7C0180067C0280027C26
:1000830003EF64F0600AAFB05307F075080180F125
:1000930075B0FBAFB05307F0EF64F0603B12016F34
:1000A300AFB05307F0EF64F0602EEF249060182494
:1000B300C0601024E0600824F0700EE4FC800A7C29
:1000C3000180067C0280027C03EF64F0600AAFB01B
:1000D3005307F075080180F175B0F7AFB05307F01F
:1000E300EF64F0603B12016FAFB05307F0EF64F0C1
:1000F300602EEF2490601824C0601024E060082470
:10010300F0700EE4FC800A7C0180067C0280027C95
:1001130003EF64F0600AAFB05307F075080180F194
:10012300E50864016003020003F508ECD394304052
:100133000DEC94395008AF04120181020003AF049F
:0601430012019D02000301
:00000001FF
