:0300000002000EED
:0C000E00787FE4F6D8FD75811E020233F5
:100448003F065B4F666D7D077F6F777C395E7971FC
:040458007679383F3A
:100233001203A81203D78F15EF1470030202DC24F4
:10024300FE70F0850E90E51360031202E2E516647A
:10025300147019F51615151202E2C2A37F321204A7
:100263003AD2A3E5157005751201F590E50AB414A9
:100273001E0509E4F50AAF0E7801EF08800123D8C3
:10028300FDF50EF590E509B403057590FFC28EE503
:100293000FB40A12E4F50F05086390FFE508B406EE
:1002A30005C28CE4F513E513709C751D12751E13BE
:1002B3007B127D117F101202EE751401D28EE50BB5
:1002C30064287082D2A6F580C2A6D2A77580FFC229
:0F02D300A71203A8C28E0202361201830202365E
:0704330093F580C2A67F05CE
:0D043A00EFD3940040077E6EDEFE1F80F3BE
:010447002292
:1003D70020B4127F0512043A20B40A30B4FDD28C3F
:1003E700D28E7F032220B5E87F0512043A20B5E0BC
:0603F70030B5FD7F01227C
:0C02E20085151D85151EAB15AD15AF155B
:1002EE00D2A77580FEC2A77580FFD2A6EF900448F4
:1002FE001204337580FFD2A77580FDC2A77580FFEB
:10030E00D2A6ED1204337580FFD2A77580FBC2A76B
:10031E007580FFD2A6EB1204337580FFD2A77580CD
:10032E00F7C2A77580FFD2A6E51D1204337580FFB4
:10033E00D2A77580EFC2A77580FFD2A6E51E120464
:05034E00337580FF2261
:1003A800E4F50CF516F512F50FF508F50AF50975DB
:1003B8001301F514F50B750EFE758911758C3C75D6
:0F03C8008AB0D2AFD2A9758D3C758BB0D2AB2263
:03000B000203FDF0
:1003FD00C0E0E512700A758C3C758AB00516800850
:0B040D00758C3C758AB0050FD0E03202
:03001B00020418C4
:10041800C0E0E514700A758D3C758BB0050A80083C
:0B042800758D3C758BB0050BD0E032E9
:1001830012001E8F0D75120112001E8F10E4F5125E
:10019300F51312001E8F11E51075F00AA4FDACF0E3
:1001A300E50D75F064A42DFFE5F03CFE7C00EF2522
:1001B30011F519EC3EF518D28CAE18AF197C007D01
:1001C300641203538F0DAE18AF197C007D641203C4
:1001D300537E007F0ACFCDCFCECCCE1203538F10E8
:1001E300AE18AF197C007D0A1203538D11E4F51D7F
:1001F300F51EAB11AD10AF0D1202EEE516B4141AD5
:10020300E4F516E519151970021518E51945187066
:1002130009C2A3C28C751401D28EE50BB4289AE4EB
:0F022300F50BD2A6F580C2A6C28ED2A31203A8F5
:0102320022A9
:10001E0075B0FE85B0175317F0E51764F060407F9A
:10002E000512043A85B0175317F0E51764F060E92E
:10003E0085B017E5172482601B24C0601224E0608F
:10004E000924F07012750C01800D750C0280087574
:10005E000C038003750C0AE517B4FECE020156752B
:10006E00B0FD85B0175317F0E51764F060407F05BB
:10007E0012043A85B0175317F0E51764F060E9855E
:10008E00B017E5172483601B24C0601224E06009BA
:10009E0024F07012750C04800D750C058008750C1B
:1000AE00068003750C0BE517B4FDCE02015675B034
:1000BE00FB85B0175317F0E51764F0603F7F05120C
:1000CE00043A85B0175317F0E51764FE60E985B062
:1000DE0017E5172485601B24C0601224E0600924F4
:1000EE00F07012750C07800D750C088008750C09E0
:1000FE008003750C0CE517B4FBCE804C75B0F785FC
:10010E00B0175317F0E51764F060437F0512043AF9
:10011E0085B0175317F0E51764F060E985B017E561
:10012E00172489601B24C0601224E0600924F0703B
:10013E0012E4F50C800D750C0E8008750C0F800303
:10014E00750C10E517B4F7CE75B0FFAF0C22E512A3
:10015E00B4010CE4F51DF51EFBFDAF0D1202EEE52C
:10016E0013600302001EF51DF51EFBAD10AF0D1240
:05017E0002EE02001E6C
:10035300BC000BBE0029EF8DF084FFADF022E4CC8E
:10036300F875F008EF2FFFEE33FEEC33FCEE9DEC57
:10037300984005FCEE9DFE0FD5F0E9E4CEFD22ED9D
:10038300F8F5F0EE8420D21CFEADF075F008EF2FE7
:10039300FFED33FD4007985006D5F0F222C398FDD8
:0503A3000FD5F0EA2275
:00000001FF
