:0300000002008378
:0C008300787FE4F6D8FD758109020003C7
:10000300C2A7C2A6C2B2C2B6E4F5807508007509DC
:10001300FFC3E5086480948040257F6412007585E2
:100023000980E50945087009C2A37F64120075D2EF
:10003300A374FB2509F50974FF3508F50880D2E49C
:10004300F508F509C3E5086480948150BE7F641206
:100053000075850980E509F445087009C2A37F642A
:10006300120075D2A374052509F509E43508F508CE
:0200730080D239
:0D007500EFD3940040077E6EDEFE1F80F387
:01008200225B
:00000001FF
